{
  "contractName": "BBSEBank",
  "abi": [
    {
      "inputs": [
        {
          "internalType": "address",
          "name": "_bbseTokenContract",
          "type": "address"
        },
        {
          "internalType": "uint32",
          "name": "_yearlyReturnRate",
          "type": "uint32"
        },
        {
          "internalType": "address",
          "name": "_oracleContract",
          "type": "address"
        }
      ],
      "stateMutability": "nonpayable",
      "type": "constructor"
    },
    {
      "anonymous": false,
      "inputs": [
        {
          "indexed": true,
          "internalType": "address",
          "name": "previousOwner",
          "type": "address"
        },
        {
          "indexed": true,
          "internalType": "address",
          "name": "newOwner",
          "type": "address"
        }
      ],
      "name": "OwnershipTransferred",
      "type": "event"
    },
    {
      "inputs": [],
      "name": "AVG_BLOCK_TIME",
      "outputs": [
        {
          "internalType": "uint32",
          "name": "",
          "type": "uint32"
        }
      ],
      "stateMutability": "view",
      "type": "function",
      "constant": true
    },
    {
      "inputs": [],
      "name": "COLLATERALIZATION_RATIO",
      "outputs": [
        {
          "internalType": "uint8",
          "name": "",
          "type": "uint8"
        }
      ],
      "stateMutability": "view",
      "type": "function",
      "constant": true
    },
    {
      "inputs": [],
      "name": "LOAN_FEE_RATE",
      "outputs": [
        {
          "internalType": "uint8",
          "name": "",
          "type": "uint8"
        }
      ],
      "stateMutability": "view",
      "type": "function",
      "constant": true
    },
    {
      "inputs": [],
      "name": "MIN_DEPOSIT_AMOUNT",
      "outputs": [
        {
          "internalType": "uint256",
          "name": "",
          "type": "uint256"
        }
      ],
      "stateMutability": "view",
      "type": "function",
      "constant": true
    },
    {
      "inputs": [],
      "name": "YEAR_SECONDS",
      "outputs": [
        {
          "internalType": "uint32",
          "name": "",
          "type": "uint32"
        }
      ],
      "stateMutability": "view",
      "type": "function",
      "constant": true
    },
    {
      "inputs": [
        {
          "internalType": "address",
          "name": "",
          "type": "address"
        }
      ],
      "name": "borrowers",
      "outputs": [
        {
          "internalType": "bool",
          "name": "hasActiveLoan",
          "type": "bool"
        },
        {
          "internalType": "uint256",
          "name": "amount",
          "type": "uint256"
        },
        {
          "internalType": "uint256",
          "name": "collateral",
          "type": "uint256"
        }
      ],
      "stateMutability": "view",
      "type": "function",
      "constant": true
    },
    {
      "inputs": [],
      "name": "interestPerSecondForMinDeposit",
      "outputs": [
        {
          "internalType": "uint256",
          "name": "",
          "type": "uint256"
        }
      ],
      "stateMutability": "view",
      "type": "function",
      "constant": true
    },
    {
      "inputs": [
        {
          "internalType": "address",
          "name": "",
          "type": "address"
        }
      ],
      "name": "investors",
      "outputs": [
        {
          "internalType": "bool",
          "name": "hasActiveDeposit",
          "type": "bool"
        },
        {
          "internalType": "uint256",
          "name": "amount",
          "type": "uint256"
        },
        {
          "internalType": "uint256",
          "name": "startTime",
          "type": "uint256"
        }
      ],
      "stateMutability": "view",
      "type": "function",
      "constant": true
    },
    {
      "inputs": [],
      "name": "owner",
      "outputs": [
        {
          "internalType": "address",
          "name": "",
          "type": "address"
        }
      ],
      "stateMutability": "view",
      "type": "function",
      "constant": true
    },
    {
      "inputs": [],
      "name": "renounceOwnership",
      "outputs": [],
      "stateMutability": "nonpayable",
      "type": "function"
    },
    {
      "inputs": [],
      "name": "totalDepositAmount",
      "outputs": [
        {
          "internalType": "uint256",
          "name": "",
          "type": "uint256"
        }
      ],
      "stateMutability": "view",
      "type": "function",
      "constant": true
    },
    {
      "inputs": [
        {
          "internalType": "address",
          "name": "newOwner",
          "type": "address"
        }
      ],
      "name": "transferOwnership",
      "outputs": [],
      "stateMutability": "nonpayable",
      "type": "function"
    },
    {
      "inputs": [],
      "name": "yearlyReturnRate",
      "outputs": [
        {
          "internalType": "uint32",
          "name": "",
          "type": "uint32"
        }
      ],
      "stateMutability": "view",
      "type": "function",
      "constant": true
    },
    {
      "stateMutability": "payable",
      "type": "receive",
      "payable": true
    },
    {
      "inputs": [],
      "name": "deposit",
      "outputs": [],
      "stateMutability": "payable",
      "type": "function",
      "payable": true
    },
    {
      "inputs": [],
      "name": "withdraw",
      "outputs": [],
      "stateMutability": "nonpayable",
      "type": "function"
    },
    {
      "inputs": [
        {
          "internalType": "uint32",
          "name": "_yearlyReturnRate",
          "type": "uint32"
        }
      ],
      "name": "updateYearlyReturnRate",
      "outputs": [],
      "stateMutability": "nonpayable",
      "type": "function"
    },
    {
      "inputs": [
        {
          "internalType": "uint256",
          "name": "amount",
          "type": "uint256"
        }
      ],
      "name": "borrow",
      "outputs": [],
      "stateMutability": "nonpayable",
      "type": "function"
    },
    {
      "inputs": [],
      "name": "payLoan",
      "outputs": [],
      "stateMutability": "payable",
      "type": "function",
      "payable": true
    }
  ],
  "bytecode": "0x60806040523480156200001157600080fd5b50604051620022fb380380620022fb83398181016040528101906200003791906200032f565b620000576200004b620001b860201b60201c565b620001c060201b60201c565b8163ffffffff1660008111801562000070575060648111155b620000b2576040517f08c379a0000000000000000000000000000000000000000000000000000000008152600401620000a99062000412565b60405180910390fd5b83600160006101000a81548173ffffffffffffffffffffffffffffffffffffffff021916908373ffffffffffffffffffffffffffffffffffffffff16021790555081600260006101000a81548173ffffffffffffffffffffffffffffffffffffffff021916908373ffffffffffffffffffffffffffffffffffffffff16021790555082600260146101000a81548163ffffffff021916908363ffffffff1602179055506301e1338063ffffffff166064600260149054906101000a900463ffffffff1663ffffffff16670de0b6b3a76400006200019091906200046d565b6200019c9190620004fd565b620001a89190620004fd565b6003819055505050505062000535565b600033905090565b60008060009054906101000a900473ffffffffffffffffffffffffffffffffffffffff169050816000806101000a81548173ffffffffffffffffffffffffffffffffffffffff021916908373ffffffffffffffffffffffffffffffffffffffff1602179055508173ffffffffffffffffffffffffffffffffffffffff168173ffffffffffffffffffffffffffffffffffffffff167f8be0079c531659141344cd1fd0a4f28419497f9722a3daafe3b4186f6b6457e060405160405180910390a35050565b600080fd5b600073ffffffffffffffffffffffffffffffffffffffff82169050919050565b6000620002b68262000289565b9050919050565b620002c881620002a9565b8114620002d457600080fd5b50565b600081519050620002e881620002bd565b92915050565b600063ffffffff82169050919050565b6200030981620002ee565b81146200031557600080fd5b50565b6000815190506200032981620002fe565b92915050565b6000806000606084860312156200034b576200034a62000284565b5b60006200035b86828701620002d7565b93505060206200036e8682870162000318565b92505060406200038186828701620002d7565b9150509250925092565b600082825260208201905092915050565b7f596561726c792072657475726e2072617465206d75737420626520626574776560008201527f656e203120616e64203130300000000000000000000000000000000000000000602082015250565b6000620003fa602c836200038b565b915062000407826200039c565b604082019050919050565b600060208201905081810360008301526200042d81620003eb565b9050919050565b6000819050919050565b7f4e487b7100000000000000000000000000000000000000000000000000000000600052601160045260246000fd5b60006200047a8262000434565b9150620004878362000434565b9250817fffffffffffffffffffffffffffffffffffffffffffffffffffffffffffffffff0483118215151615620004c357620004c26200043e565b5b828202905092915050565b7f4e487b7100000000000000000000000000000000000000000000000000000000600052601260045260246000fd5b60006200050a8262000434565b9150620005178362000434565b9250826200052a5762000529620004ce565b5b828204905092915050565b611db680620005456000396000f3fe60806040526004361061010d5760003560e01c80638da5cb5b11610095578063c5408d5011610064578063c5408d5014610325578063c5ebeaec14610350578063c9bac3e114610379578063d0e30db0146103a4578063f2fde38b146103ae57610114565b80638da5cb5b14610265578063a629802914610290578063b330db28146102bb578063bf5d50c4146102e657610114565b80633ccfd60b116100dc5780633ccfd60b146101c3578063472eb03d146101da5780636f7bc9be146101e4578063715018a61461022357806385ba05921461023a57610114565b80630bb359b7146101195780630d386146146101445780631ea30fef1461016d5780633402ff1d1461019857610114565b3661011457005b600080fd5b34801561012557600080fd5b5061012e6103d7565b60405161013b919061129d565b60405180910390f35b34801561015057600080fd5b5061016b600480360381019061016691906112e9565b6103ed565b005b34801561017957600080fd5b50610182610471565b60405161018f919061132f565b60405180910390f35b3480156101a457600080fd5b506101ad61047d565b6040516101ba9190611366565b60405180910390f35b3480156101cf57600080fd5b506101d8610482565b005b6101e26106e8565b005b3480156101f057600080fd5b5061020b600480360381019061020691906113df565b610a40565b60405161021a93929190611427565b60405180910390f35b34801561022f57600080fd5b50610238610a77565b005b34801561024657600080fd5b5061024f610a8b565b60405161025c919061129d565b60405180910390f35b34801561027157600080fd5b5061027a610a92565b604051610287919061146d565b60405180910390f35b34801561029c57600080fd5b506102a5610abb565b6040516102b29190611366565b60405180910390f35b3480156102c757600080fd5b506102d0610ac0565b6040516102dd919061129d565b60405180910390f35b3480156102f257600080fd5b5061030d600480360381019061030891906113df565b610ac8565b60405161031c93929190611427565b60405180910390f35b34801561033157600080fd5b5061033a610aff565b604051610347919061132f565b60405180910390f35b34801561035c57600080fd5b50610377600480360381019061037291906114b4565b610b05565b005b34801561038557600080fd5b5061038e610ec4565b60405161039b919061132f565b60405180910390f35b6103ac610eca565b005b3480156103ba57600080fd5b506103d560048036038101906103d091906113df565b6110b0565b005b600260149054906101000a900463ffffffff1681565b6103f5611134565b8063ffffffff1660008111801561040d575060648111155b61044c576040517f08c379a000000000000000000000000000000000000000000000000000000000815260040161044390611564565b60405180910390fd5b81600260146101000a81548163ffffffff021916908363ffffffff1602179055505050565b670de0b6b3a764000081565b609681565b60011515600560003373ffffffffffffffffffffffffffffffffffffffff1673ffffffffffffffffffffffffffffffffffffffff16815260200190815260200160002060000160009054906101000a900460ff16151514610518576040517f08c379a000000000000000000000000000000000000000000000000000000000815260040161050f906115f6565b60405180910390fd5b6000600560003373ffffffffffffffffffffffffffffffffffffffff1673ffffffffffffffffffffffffffffffffffffffff168152602001908152602001600020905060008160010154905060006298968063ffffffff168360020154436105809190611645565b61058a9190611679565b9050816004600082825461059e9190611645565b925050819055506000670de0b6b3a7640000836105bb9190611702565b6003546105c89190611679565b9050600082826105d89190611679565b90503373ffffffffffffffffffffffffffffffffffffffff166108fc859081150290604051600060405180830381858888f19350505050158015610620573d6000803e3d6000fd5b50600160009054906101000a900473ffffffffffffffffffffffffffffffffffffffff1673ffffffffffffffffffffffffffffffffffffffff166340c10f1933836040518363ffffffff1660e01b815260040161067e929190611733565b600060405180830381600087803b15801561069857600080fd5b505af11580156106ac573d6000803e3d6000fd5b505050506000856001018190555060008560000160006101000a81548160ff021916908315150217905550600085600201819055505050505050565b60011515600660003373ffffffffffffffffffffffffffffffffffffffff1673ffffffffffffffffffffffffffffffffffffffff16815260200190815260200160002060000160009054906101000a900460ff1615151461077e576040517f08c379a0000000000000000000000000000000000000000000000000000000008152600401610775906117ce565b60405180910390fd5b600660003373ffffffffffffffffffffffffffffffffffffffff1673ffffffffffffffffffffffffffffffffffffffff168152602001908152602001600020600101543414610802576040517f08c379a00000000000000000000000000000000000000000000000000000000081526004016107f990611860565b60405180910390fd5b60006064600160ff16600660003373ffffffffffffffffffffffffffffffffffffffff1673ffffffffffffffffffffffffffffffffffffffff168152602001908152602001600020600201546108589190611679565b6108629190611702565b9050600160009054906101000a900473ffffffffffffffffffffffffffffffffffffffff1673ffffffffffffffffffffffffffffffffffffffff1663a9059cbb3383600660003373ffffffffffffffffffffffffffffffffffffffff1673ffffffffffffffffffffffffffffffffffffffff168152602001908152602001600020600201546108f19190611645565b6040518363ffffffff1660e01b815260040161090e929190611733565b6020604051808303816000875af115801561092d573d6000803e3d6000fd5b505050506040513d601f19601f8201168201806040525081019061095191906118ac565b506000600660003373ffffffffffffffffffffffffffffffffffffffff1673ffffffffffffffffffffffffffffffffffffffff16815260200190815260200160002060000160006101000a81548160ff0219169083151502179055506000600660003373ffffffffffffffffffffffffffffffffffffffff1673ffffffffffffffffffffffffffffffffffffffff168152602001908152602001600020600101819055506000600660003373ffffffffffffffffffffffffffffffffffffffff1673ffffffffffffffffffffffffffffffffffffffff1681526020019081526020016000206002018190555050565b60056020528060005260406000206000915090508060000160009054906101000a900460ff16908060010154908060020154905083565b610a7f611134565b610a8960006111b2565b565b6298968081565b60008060009054906101000a900473ffffffffffffffffffffffffffffffffffffffff16905090565b600181565b6301e1338081565b60066020528060005260406000206000915090508060000160009054906101000a900460ff16908060010154908060020154905083565b60045481565b60011515600660003373ffffffffffffffffffffffffffffffffffffffff1673ffffffffffffffffffffffffffffffffffffffff16815260200190815260200160002060000160009054906101000a900460ff1615151415610b9c576040517f08c379a0000000000000000000000000000000000000000000000000000000008152600401610b939061194b565b60405180910390fd5b4760045482610bab919061196b565b1115610bec576040517f08c379a0000000000000000000000000000000000000000000000000000000008152600401610be390611a33565b60405180910390fd5b6000600260009054906101000a900473ffffffffffffffffffffffffffffffffffffffff1673ffffffffffffffffffffffffffffffffffffffff1663679aefce6040518163ffffffff1660e01b81526004016020604051808303816000875af1158015610c5d573d6000803e3d6000fd5b505050506040513d601f19601f82011682018060405250810190610c819190611a68565b90506000816064609660ff1685610c989190611679565b610ca29190611702565b610cac9190611679565b9050600160009054906101000a900473ffffffffffffffffffffffffffffffffffffffff1673ffffffffffffffffffffffffffffffffffffffff166323b872dd3330846040518463ffffffff1660e01b8152600401610d0d93929190611a95565b6020604051808303816000875af1158015610d2c573d6000803e3d6000fd5b505050506040513d601f19601f82011682018060405250810190610d5091906118ac565b610d8f576040517f08c379a0000000000000000000000000000000000000000000000000000000008152600401610d8690611b3e565b60405180910390fd5b3373ffffffffffffffffffffffffffffffffffffffff166108fc849081150290604051600060405180830381858888f19350505050158015610dd5573d6000803e3d6000fd5b506001600660003373ffffffffffffffffffffffffffffffffffffffff1673ffffffffffffffffffffffffffffffffffffffff16815260200190815260200160002060000160006101000a81548160ff02191690831515021790555082600660003373ffffffffffffffffffffffffffffffffffffffff1673ffffffffffffffffffffffffffffffffffffffff1681526020019081526020016000206001018190555080600660003373ffffffffffffffffffffffffffffffffffffffff1673ffffffffffffffffffffffffffffffffffffffff16815260200190815260200160002060020181905550505050565b60035481565b670de0b6b3a7640000341015610f15576040517f08c379a0000000000000000000000000000000000000000000000000000000008152600401610f0c90611bd0565b60405180910390fd5b60011515600560003373ffffffffffffffffffffffffffffffffffffffff1673ffffffffffffffffffffffffffffffffffffffff16815260200190815260200160002060000160009054906101000a900460ff1615151415610fac576040517f08c379a0000000000000000000000000000000000000000000000000000000008152600401610fa390611c62565b60405180910390fd5b3460046000828254610fbe919061196b565b9250508190555034600560003373ffffffffffffffffffffffffffffffffffffffff1673ffffffffffffffffffffffffffffffffffffffff168152602001908152602001600020600101819055506001600560003373ffffffffffffffffffffffffffffffffffffffff1673ffffffffffffffffffffffffffffffffffffffff16815260200190815260200160002060000160006101000a81548160ff02191690831515021790555043600560003373ffffffffffffffffffffffffffffffffffffffff1673ffffffffffffffffffffffffffffffffffffffff16815260200190815260200160002060020181905550565b6110b8611134565b600073ffffffffffffffffffffffffffffffffffffffff168173ffffffffffffffffffffffffffffffffffffffff161415611128576040517f08c379a000000000000000000000000000000000000000000000000000000000815260040161111f90611cf4565b60405180910390fd5b611131816111b2565b50565b61113c611276565b73ffffffffffffffffffffffffffffffffffffffff1661115a610a92565b73ffffffffffffffffffffffffffffffffffffffff16146111b0576040517f08c379a00000000000000000000000000000000000000000000000000000000081526004016111a790611d60565b60405180910390fd5b565b60008060009054906101000a900473ffffffffffffffffffffffffffffffffffffffff169050816000806101000a81548173ffffffffffffffffffffffffffffffffffffffff021916908373ffffffffffffffffffffffffffffffffffffffff1602179055508173ffffffffffffffffffffffffffffffffffffffff168173ffffffffffffffffffffffffffffffffffffffff167f8be0079c531659141344cd1fd0a4f28419497f9722a3daafe3b4186f6b6457e060405160405180910390a35050565b600033905090565b600063ffffffff82169050919050565b6112978161127e565b82525050565b60006020820190506112b2600083018461128e565b92915050565b600080fd5b6112c68161127e565b81146112d157600080fd5b50565b6000813590506112e3816112bd565b92915050565b6000602082840312156112ff576112fe6112b8565b5b600061130d848285016112d4565b91505092915050565b6000819050919050565b61132981611316565b82525050565b60006020820190506113446000830184611320565b92915050565b600060ff82169050919050565b6113608161134a565b82525050565b600060208201905061137b6000830184611357565b92915050565b600073ffffffffffffffffffffffffffffffffffffffff82169050919050565b60006113ac82611381565b9050919050565b6113bc816113a1565b81146113c757600080fd5b50565b6000813590506113d9816113b3565b92915050565b6000602082840312156113f5576113f46112b8565b5b6000611403848285016113ca565b91505092915050565b60008115159050919050565b6114218161140c565b82525050565b600060608201905061143c6000830186611418565b6114496020830185611320565b6114566040830184611320565b949350505050565b611467816113a1565b82525050565b6000602082019050611482600083018461145e565b92915050565b61149181611316565b811461149c57600080fd5b50565b6000813590506114ae81611488565b92915050565b6000602082840312156114ca576114c96112b8565b5b60006114d88482850161149f565b91505092915050565b600082825260208201905092915050565b7f596561726c792072657475726e2072617465206d75737420626520626574776560008201527f656e203120616e64203130300000000000000000000000000000000000000000602082015250565b600061154e602c836114e1565b9150611559826114f2565b604082019050919050565b6000602082019050818103600083015261157d81611541565b9050919050565b7f4163636f756e74206d757374206861766520616e20616374697665206465706f60008201527f73697420746f2077697468647261770000000000000000000000000000000000602082015250565b60006115e0602f836114e1565b91506115eb82611584565b604082019050919050565b6000602082019050818103600083015261160f816115d3565b9050919050565b7f4e487b7100000000000000000000000000000000000000000000000000000000600052601160045260246000fd5b600061165082611316565b915061165b83611316565b92508282101561166e5761166d611616565b5b828203905092915050565b600061168482611316565b915061168f83611316565b9250817fffffffffffffffffffffffffffffffffffffffffffffffffffffffffffffffff04831182151516156116c8576116c7611616565b5b828202905092915050565b7f4e487b7100000000000000000000000000000000000000000000000000000000600052601260045260246000fd5b600061170d82611316565b915061171883611316565b925082611728576117276116d3565b5b828204905092915050565b6000604082019050611748600083018561145e565b6117556020830184611320565b9392505050565b7f4163636f756e74206d757374206861766520616e20616374697665206c6f616e60008201527f20746f20706179206261636b0000000000000000000000000000000000000000602082015250565b60006117b8602c836114e1565b91506117c38261175c565b604082019050919050565b600060208201905081810360008301526117e7816117ab565b9050919050565b7f546865207061696420616d6f756e74206d757374206d6174636820746865206260008201527f6f72726f77656420616d6f756e74000000000000000000000000000000000000602082015250565b600061184a602e836114e1565b9150611855826117ee565b604082019050919050565b600060208201905081810360008301526118798161183d565b9050919050565b6118898161140c565b811461189457600080fd5b50565b6000815190506118a681611880565b92915050565b6000602082840312156118c2576118c16112b8565b5b60006118d084828501611897565b91505092915050565b7f4163636f756e742063616e27742068617665206d756c7469706c65206163746960008201527f7665206c6f616e73000000000000000000000000000000000000000000000000602082015250565b60006119356028836114e1565b9150611940826118d9565b604082019050919050565b6000602082019050818103600083015261196481611928565b9050919050565b600061197682611316565b915061198183611316565b9250827fffffffffffffffffffffffffffffffffffffffffffffffffffffffffffffffff038211156119b6576119b5611616565b5b828201905092915050565b7f5468652062616e6b2063616e2774206c656e64207468697320616d6f756e742060008201527f7269676874206e6f770000000000000000000000000000000000000000000000602082015250565b6000611a1d6029836114e1565b9150611a28826119c1565b604082019050919050565b60006020820190508181036000830152611a4c81611a10565b9050919050565b600081519050611a6281611488565b92915050565b600060208284031215611a7e57611a7d6112b8565b5b6000611a8c84828501611a53565b91505092915050565b6000606082019050611aaa600083018661145e565b611ab7602083018561145e565b611ac46040830184611320565b949350505050565b7f4242534542616e6b2063616e2774207265636569766520796f757220746f6b6560008201527f6e73000000000000000000000000000000000000000000000000000000000000602082015250565b6000611b286022836114e1565b9150611b3382611acc565b604082019050919050565b60006020820190508181036000830152611b5781611b1b565b9050919050565b7f4d696e696d756d206465706f73697420616d6f756e742069732031204574686560008201527f7200000000000000000000000000000000000000000000000000000000000000602082015250565b6000611bba6021836114e1565b9150611bc582611b5e565b604082019050919050565b60006020820190508181036000830152611be981611bad565b9050919050565b7f4163636f756e742063616e27742068617665206d756c7469706c65206163746960008201527f7665206465706f73697473000000000000000000000000000000000000000000602082015250565b6000611c4c602b836114e1565b9150611c5782611bf0565b604082019050919050565b60006020820190508181036000830152611c7b81611c3f565b9050919050565b7f4f776e61626c653a206e6577206f776e657220697320746865207a65726f206160008201527f6464726573730000000000000000000000000000000000000000000000000000602082015250565b6000611cde6026836114e1565b9150611ce982611c82565b604082019050919050565b60006020820190508181036000830152611d0d81611cd1565b9050919050565b7f4f776e61626c653a2063616c6c6572206973206e6f7420746865206f776e6572600082015250565b6000611d4a6020836114e1565b9150611d5582611d14565b602082019050919050565b60006020820190508181036000830152611d7981611d3d565b905091905056fea26469706673582212200e104567b10f1409712d1d9b236c510fe1bd88faba12096f135b37ffe1c572bf64736f6c634300080b0033",
  "immutableReferences": {},
  "source": "// SPDX-License-Identifier: MIT\r\npragma solidity ^0.8.0;\r\n\r\nimport \"./BBSEToken.sol\";\r\nimport \"./ETHBBSEPriceFeedOracle.sol\";\r\nimport \"@openzeppelin/contracts/access/Ownable.sol\";\r\n\r\ncontract BBSEBank is Ownable{\r\n  // BBSE Token Contract instance\r\n  BBSEToken private bbseTokenContract;\r\n\r\n  // ETHBBSEPriceFeedOracle Contract instance\r\n  ETHBBSEPriceFeedOracle private oracleContract;\r\n  \r\n  // Yearly return rate of the bank\r\n  uint32 public yearlyReturnRate;\r\n  \r\n  // Seconds in a year\r\n  uint32 public constant YEAR_SECONDS = 31536000; \r\n\r\n  // Average block time (set to a large number in order to increase the paid interest i.e., BBSE tokens)\r\n  uint32 public constant AVG_BLOCK_TIME = 10000000;\r\n  \r\n  // Minimum deposit amount (1 Ether, expressed in Wei)\r\n  uint public constant MIN_DEPOSIT_AMOUNT = 10**18;\r\n\r\n  /* Min. Collateral value / Loan value\r\n   * Example: To take a 1 ETH loan,\r\n   * an asset worth of at least 1.5 ETH must be collateralized.\r\n  */\r\n  uint8 public constant COLLATERALIZATION_RATIO = 150;\r\n\r\n  // 1% of every collateral is taken as fee\r\n  uint8 public constant LOAN_FEE_RATE = 1;\r\n\r\n  /* Interest earned per second for a minumum deposit amount.\r\n   * Equals to the yearly return of the minimum deposit amount\r\n   * divided by the number of seconds in a year.\r\n  */\r\n  uint public interestPerSecondForMinDeposit;\r\n\r\n  /* The value of the total deposited ETH.\r\n   * BBSEBank shouldn't be giving loans where requested amount + totalDepositAmount > contract's ETH balance.\r\n   * E.g., if all depositors want to withdraw while no borrowers paid their loan back, then the bank contract\r\n   * should still be able to pay.\r\n  */\r\n  uint public totalDepositAmount;\r\n\r\n  // Represents an investor record\r\n  struct Investor {\r\n    bool hasActiveDeposit;\r\n    uint amount;\r\n    uint startTime;\r\n  }\r\n\r\n  // Address to investor mapping\r\n  mapping (address => Investor) public investors;\r\n\r\n   // Represents a borrower record\r\n  struct Borrower {\r\n    bool hasActiveLoan;\r\n    uint amount;\r\n    uint collateral;\r\n  }\r\n\r\n  // Address to borrower mapping\r\n  mapping (address => Borrower) public borrowers;\r\n\r\n /**\r\n  * @dev Checks whether the yearlyReturnRate value is between 1 and 100\r\n  */\r\n  modifier validRate (uint _rate) {\r\n    require(_rate > 0 && _rate <= 100, \"Yearly return rate must be between 1 and 100\");\r\n    _;\r\n  }\r\n\r\n  /**\r\n  * @dev Initializes the bbseTokenContract with the provided contract address.\r\n  * Sets the yearly return rate for the bank.\r\n  * Yearly return rate must be between 1 and 100.\r\n  * Calculates and sets the interest earned per second for a minumum deposit amount\r\n  * based on the yearly return rate.\r\n  * @param _bbseTokenContract address of the deployed BBSEToken contract\r\n  * @param _yearlyReturnRate yearly return rate of the bank\r\n  * @param _oracleContract address of the deployed ETHBBSEPriceFeedOracle contract\r\n  */\r\n  constructor (address _bbseTokenContract, uint32 _yearlyReturnRate, address _oracleContract) public validRate(_yearlyReturnRate) {\r\n    bbseTokenContract = BBSEToken(_bbseTokenContract);\r\n    oracleContract = ETHBBSEPriceFeedOracle(_oracleContract);\r\n    yearlyReturnRate = _yearlyReturnRate;\r\n    // Calculate interest per second for min deposit (1 Ether)\r\n    interestPerSecondForMinDeposit = ((MIN_DEPOSIT_AMOUNT * yearlyReturnRate) / 100) / YEAR_SECONDS;\r\n  }\r\n\r\n  /**\r\n  * @dev Initializes the respective investor object in investors mapping for the caller of the function.\r\n  * Sets the amount to message value and starts the deposit time (hint: use block number as the start time).\r\n  * Minimum deposit amount is 1 Ether (be careful about decimals!)\r\n  * Investor can't have an already active deposit.\r\n  */\r\n  function deposit() payable public{\r\n    require(msg.value >= MIN_DEPOSIT_AMOUNT, \"Minimum deposit amount is 1 Ether\");\r\n    require(investors[msg.sender].hasActiveDeposit != true, \"Account can't have multiple active deposits\");\r\n\r\n    // Updates total deposited amount\r\n    totalDepositAmount += msg.value;\r\n\r\n    investors[msg.sender].amount = msg.value;\r\n    investors[msg.sender].hasActiveDeposit = true;\r\n    investors[msg.sender].startTime = block.number;\r\n  }\r\n\r\n  /**\r\n  * @dev Calculates the interest to be paid out based\r\n  * on the deposit amount and duration.\r\n  * Transfers back the deposited amount in Ether.\r\n  * Mints BBSE tokens to investor to pay the interest (1 token = 1 interest).\r\n  * Resets the respective investor object in investors mapping.\r\n  * Investor must have an active deposit.\r\n  */\r\n  function withdraw() public {\r\n    require(investors[msg.sender].hasActiveDeposit == true, \"Account must have an active deposit to withdraw\");\r\n    Investor storage investor = investors[msg.sender];\r\n    uint depositedAmount = investor.amount;\r\n    uint depositDuration = (block.number - investor.startTime) * AVG_BLOCK_TIME;\r\n\r\n    // Updates total deposited amount\r\n    totalDepositAmount -= depositedAmount;\r\n\r\n    // Calculate interest per second\r\n    uint interestPerSecond = interestPerSecondForMinDeposit * (depositedAmount / MIN_DEPOSIT_AMOUNT);\r\n    uint interest = interestPerSecond * depositDuration;\r\n\r\n    // Send back deposited Ether to investor\r\n    payable(msg.sender).transfer(depositedAmount);\r\n    // Mint BBSE Tokens to investor, to pay out the interest\r\n    bbseTokenContract.mint(msg.sender, interest);\r\n\r\n    // Reset the investor object\r\n    investor.amount = 0;\r\n    investor.hasActiveDeposit = false;\r\n    investor.startTime = 0;\r\n  }\r\n\r\n  /**\r\n  * @dev Updates the value of the yearly return rate.\r\n  * Only callable by the owner of the BBSEBank contract.\r\n  * @param _yearlyReturnRate new yearly return rate\r\n  */\r\n  function updateYearlyReturnRate(uint32 _yearlyReturnRate) public onlyOwner validRate (_yearlyReturnRate){\r\n    yearlyReturnRate = _yearlyReturnRate;\r\n  }\r\n\r\n  /**\r\n  * @dev Collateralize BBSE Token to borrow ETH.\r\n  * A borrower can't have more than one active loan.\r\n  * ETH amount to be borrowed + totalDepositAmount, must be existing in the contract balance.\r\n  * @param amount the amount of ETH loan request (expressed in Wei)\r\n  */\r\n  function borrow(uint amount) public{\r\n    require (borrowers[msg.sender].hasActiveLoan != true, \"Account can't have multiple active loans\");\r\n    require ((amount + totalDepositAmount) <= address(this).balance, \"The bank can't lend this amount right now\");\r\n\r\n    // Get the latest price feed rate for ETH/BBSE from the price feed oracle\r\n    uint priceFeedRate = oracleContract.getRate();\r\n\r\n    uint collateral = ((amount * COLLATERALIZATION_RATIO) / 100) * priceFeedRate;\r\n\r\n    /* Try to transfer BBSE tokens from msg.sender to BBSEBank\r\n    *  msg.sender must set an allowance to BBSEBank first, since BBSEBank\r\n    *  needs to transfer the tokens from msg.sender to itself\r\n    */\r\n    require(bbseTokenContract.transferFrom(msg.sender, address(this), collateral), \"BBSEBank can't receive your tokens\");\r\n\r\n    payable(msg.sender).transfer(amount);\r\n\r\n    borrowers[msg.sender].hasActiveLoan = true;\r\n    borrowers[msg.sender].amount = amount;\r\n    borrowers[msg.sender].collateral = collateral;\r\n  }\r\n\r\n  /** \r\n  * @dev Pays the borrowed loan.\r\n  * Borrower receives back the collateral - fee BBSE tokens.\r\n  * Borrower must have an active loan.\r\n  * Borrower must send the exact ETH amount borrowed.\r\n  */  \r\n  function payLoan() public payable {\r\n    require (borrowers[msg.sender].hasActiveLoan == true, \"Account must have an active loan to pay back\");\r\n    require(msg.value == borrowers[msg.sender].amount, \"The paid amount must match the borrowed amount\");\r\n\r\n    uint fee =  (borrowers[msg.sender].collateral * LOAN_FEE_RATE) / 100;\r\n\r\n    bbseTokenContract.transfer(msg.sender, borrowers[msg.sender].collateral - fee);\r\n\r\n    borrowers[msg.sender].hasActiveLoan = false;\r\n    borrowers[msg.sender].amount = 0;\r\n    borrowers[msg.sender].collateral = 0;\r\n  }\r\n\r\n  /** \r\n  * @dev Called every time Ether is sent to the contract.\r\n  * Required to fund the contract.\r\n  */  \r\n  receive() external payable {}\r\n}",
  "sourcePath": "/Users/burakoz/Burak/tum/phd/sebis/BBSE/SoSe 22/Exercises/Ethereum Bonus/bbse-bank-fe/contracts/BBSEBank.sol",
  "compiler": {
    "name": "solc",
    "version": "0.8.11+commit.d7f03943.Emscripten.clang"
  },
  "schemaVersion": "3.4.4",
  "updatedAt": "2022-06-29T23:01:12.356Z",
  "networkType": "ethereum",
  "devdoc": {
    "kind": "dev",
    "methods": {
      "borrow(uint256)": {
        "details": "Collateralize BBSE Token to borrow ETH. A borrower can't have more than one active loan. ETH amount to be borrowed + totalDepositAmount, must be existing in the contract balance.",
        "params": {
          "amount": "the amount of ETH loan request (expressed in Wei)"
        }
      },
      "constructor": {
        "details": "Initializes the bbseTokenContract with the provided contract address. Sets the yearly return rate for the bank. Yearly return rate must be between 1 and 100. Calculates and sets the interest earned per second for a minumum deposit amount based on the yearly return rate.",
        "params": {
          "_bbseTokenContract": "address of the deployed BBSEToken contract",
          "_oracleContract": "address of the deployed ETHBBSEPriceFeedOracle contract",
          "_yearlyReturnRate": "yearly return rate of the bank"
        }
      },
      "deposit()": {
        "details": "Initializes the respective investor object in investors mapping for the caller of the function. Sets the amount to message value and starts the deposit time (hint: use block number as the start time). Minimum deposit amount is 1 Ether (be careful about decimals!) Investor can't have an already active deposit."
      },
      "owner()": {
        "details": "Returns the address of the current owner."
      },
      "payLoan()": {
        "details": "Pays the borrowed loan. Borrower receives back the collateral - fee BBSE tokens. Borrower must have an active loan. Borrower must send the exact ETH amount borrowed."
      },
      "renounceOwnership()": {
        "details": "Leaves the contract without owner. It will not be possible to call `onlyOwner` functions anymore. Can only be called by the current owner. NOTE: Renouncing ownership will leave the contract without an owner, thereby removing any functionality that is only available to the owner."
      },
      "transferOwnership(address)": {
        "details": "Transfers ownership of the contract to a new account (`newOwner`). Can only be called by the current owner."
      },
      "updateYearlyReturnRate(uint32)": {
        "details": "Updates the value of the yearly return rate. Only callable by the owner of the BBSEBank contract.",
        "params": {
          "_yearlyReturnRate": "new yearly return rate"
        }
      },
      "withdraw()": {
        "details": "Calculates the interest to be paid out based on the deposit amount and duration. Transfers back the deposited amount in Ether. Mints BBSE tokens to investor to pay the interest (1 token = 1 interest). Resets the respective investor object in investors mapping. Investor must have an active deposit."
      }
    },
    "version": 1
  },
  "userdoc": {
    "kind": "user",
    "methods": {},
    "version": 1
  }
}