{
  "contractName": "ETHBBSEPriceFeedOracle",
  "abi": [
    {
      "inputs": [],
      "stateMutability": "nonpayable",
      "type": "constructor"
    },
    {
      "anonymous": false,
      "inputs": [
        {
          "indexed": false,
          "internalType": "string",
          "name": "priceFeed",
          "type": "string"
        }
      ],
      "name": "GetNewRate",
      "type": "event"
    },
    {
      "anonymous": false,
      "inputs": [
        {
          "indexed": true,
          "internalType": "address",
          "name": "previousOwner",
          "type": "address"
        },
        {
          "indexed": true,
          "internalType": "address",
          "name": "newOwner",
          "type": "address"
        }
      ],
      "name": "OwnershipTransferred",
      "type": "event"
    },
    {
      "inputs": [],
      "name": "MAX_PRICE_AGE",
      "outputs": [
        {
          "internalType": "uint8",
          "name": "",
          "type": "uint8"
        }
      ],
      "stateMutability": "view",
      "type": "function",
      "constant": true
    },
    {
      "inputs": [],
      "name": "lastUpdateBlock",
      "outputs": [
        {
          "internalType": "uint256",
          "name": "",
          "type": "uint256"
        }
      ],
      "stateMutability": "view",
      "type": "function",
      "constant": true
    },
    {
      "inputs": [],
      "name": "owner",
      "outputs": [
        {
          "internalType": "address",
          "name": "",
          "type": "address"
        }
      ],
      "stateMutability": "view",
      "type": "function",
      "constant": true
    },
    {
      "inputs": [],
      "name": "renounceOwnership",
      "outputs": [],
      "stateMutability": "nonpayable",
      "type": "function"
    },
    {
      "inputs": [
        {
          "internalType": "address",
          "name": "newOwner",
          "type": "address"
        }
      ],
      "name": "transferOwnership",
      "outputs": [],
      "stateMutability": "nonpayable",
      "type": "function"
    },
    {
      "inputs": [
        {
          "internalType": "uint256",
          "name": "_rate",
          "type": "uint256"
        }
      ],
      "name": "updateRate",
      "outputs": [],
      "stateMutability": "nonpayable",
      "type": "function"
    },
    {
      "inputs": [],
      "name": "getRate",
      "outputs": [
        {
          "internalType": "uint256",
          "name": "",
          "type": "uint256"
        }
      ],
      "stateMutability": "nonpayable",
      "type": "function"
    }
  ],
  "bytecode": "0x608060405234801561001057600080fd5b5061002d61002261007660201b60201c565b61007e60201b60201c565b4360028190555060006001819055507f647239ced5071d7d8bd43b5303aeb954065dc53b9fdc26cf74bc4c175a9942806040516100699061019f565b60405180910390a16101bf565b600033905090565b60008060009054906101000a900473ffffffffffffffffffffffffffffffffffffffff169050816000806101000a81548173ffffffffffffffffffffffffffffffffffffffff021916908373ffffffffffffffffffffffffffffffffffffffff1602179055508173ffffffffffffffffffffffffffffffffffffffff168173ffffffffffffffffffffffffffffffffffffffff167f8be0079c531659141344cd1fd0a4f28419497f9722a3daafe3b4186f6b6457e060405160405180910390a35050565b600082825260208201905092915050565b7f4554482f42425345000000000000000000000000000000000000000000000000600082015250565b6000610189600883610142565b915061019482610153565b602082019050919050565b600060208201905081810360008301526101b88161017c565b9050919050565b610756806101ce6000396000f3fe608060405234801561001057600080fd5b506004361061007d5760003560e01c80638da5cb5b1161005b5780638da5cb5b146100c65780639d7f7e86146100e4578063a218141b14610102578063f2fde38b146101205761007d565b8063679aefce1461008257806369ea1771146100a0578063715018a6146100bc575b600080fd5b61008a61013c565b60405161009791906103dd565b60405180910390f35b6100ba60048036038101906100b59190610429565b610195565b005b6100c46101ae565b005b6100ce6101c2565b6040516100db9190610497565b60405180910390f35b6100ec6101eb565b6040516100f991906104ce565b60405180910390f35b61010a6101f0565b60405161011791906103dd565b60405180910390f35b61013a60048036038101906101359190610515565b6101f6565b005b6000600360ff16600254436101519190610571565b111561018d577f647239ced5071d7d8bd43b5303aeb954065dc53b9fdc26cf74bc4c175a99428060405161018490610602565b60405180910390a15b600154905090565b61019d61027a565b806001819055504360028190555050565b6101b661027a565b6101c060006102f8565b565b60008060009054906101000a900473ffffffffffffffffffffffffffffffffffffffff16905090565b600381565b60025481565b6101fe61027a565b600073ffffffffffffffffffffffffffffffffffffffff168173ffffffffffffffffffffffffffffffffffffffff16141561026e576040517f08c379a000000000000000000000000000000000000000000000000000000000815260040161026590610694565b60405180910390fd5b610277816102f8565b50565b6102826103bc565b73ffffffffffffffffffffffffffffffffffffffff166102a06101c2565b73ffffffffffffffffffffffffffffffffffffffff16146102f6576040517f08c379a00000000000000000000000000000000000000000000000000000000081526004016102ed90610700565b60405180910390fd5b565b60008060009054906101000a900473ffffffffffffffffffffffffffffffffffffffff169050816000806101000a81548173ffffffffffffffffffffffffffffffffffffffff021916908373ffffffffffffffffffffffffffffffffffffffff1602179055508173ffffffffffffffffffffffffffffffffffffffff168173ffffffffffffffffffffffffffffffffffffffff167f8be0079c531659141344cd1fd0a4f28419497f9722a3daafe3b4186f6b6457e060405160405180910390a35050565b600033905090565b6000819050919050565b6103d7816103c4565b82525050565b60006020820190506103f260008301846103ce565b92915050565b600080fd5b610406816103c4565b811461041157600080fd5b50565b600081359050610423816103fd565b92915050565b60006020828403121561043f5761043e6103f8565b5b600061044d84828501610414565b91505092915050565b600073ffffffffffffffffffffffffffffffffffffffff82169050919050565b600061048182610456565b9050919050565b61049181610476565b82525050565b60006020820190506104ac6000830184610488565b92915050565b600060ff82169050919050565b6104c8816104b2565b82525050565b60006020820190506104e360008301846104bf565b92915050565b6104f281610476565b81146104fd57600080fd5b50565b60008135905061050f816104e9565b92915050565b60006020828403121561052b5761052a6103f8565b5b600061053984828501610500565b91505092915050565b7f4e487b7100000000000000000000000000000000000000000000000000000000600052601160045260246000fd5b600061057c826103c4565b9150610587836103c4565b92508282101561059a57610599610542565b5b828203905092915050565b600082825260208201905092915050565b7f4554482f42425345000000000000000000000000000000000000000000000000600082015250565b60006105ec6008836105a5565b91506105f7826105b6565b602082019050919050565b6000602082019050818103600083015261061b816105df565b9050919050565b7f4f776e61626c653a206e6577206f776e657220697320746865207a65726f206160008201527f6464726573730000000000000000000000000000000000000000000000000000602082015250565b600061067e6026836105a5565b915061068982610622565b604082019050919050565b600060208201905081810360008301526106ad81610671565b9050919050565b7f4f776e61626c653a2063616c6c6572206973206e6f7420746865206f776e6572600082015250565b60006106ea6020836105a5565b91506106f5826106b4565b602082019050919050565b60006020820190508181036000830152610719816106dd565b905091905056fea2646970667358221220c5ec69067ab811a48b9f63c957a4c9f624ede0c8bc89d23826a5117b0712464f64736f6c634300080b0033",
  "immutableReferences": {},
  "source": "// SPDX-License-Identifier: MIT\npragma solidity ^0.8.0;\n\nimport \"@openzeppelin/contracts/access/Ownable.sol\";\n\ncontract ETHBBSEPriceFeedOracle is Ownable {\n  // Max number of blocks before a price update is required\n  uint8 public constant MAX_PRICE_AGE = 3;\n\n  // ETH/BBSE rate\n  uint private rate;\n\n  // Block number of the last rate update.\n  uint public lastUpdateBlock;\n\n  // An event that indicates the price of the priceFeed should be updated\n  // Must be listened by the oracle server\n  event GetNewRate (string priceFeed);\n  \n  /**\n  * @dev Initializes lastUpdateBlock to current block number and rate to 0.\n  * Emits GetNewRate to trigger the oracle server to update the rate.\n  * The priceFeed parameter of GetNewRate should be ETH/BBSE\n  */\n  constructor () public { \n    lastUpdateBlock = block.number;\n    rate = 0;\n    emit GetNewRate(\"ETH/BBSE\");\n  }\n\n  /**\n  * @dev Updates the rate and sets the lastUpdateBlock to current block number.\n  * Can only be called by the owner of the oracle contract.\n  * Can't be called internally.\n  * @param _rate new rate of the price feed.\n  */\n  function updateRate (uint _rate) external onlyOwner {\n    rate = _rate;\n    lastUpdateBlock = block.number;\n  }\n\n  /**\n  * @dev Returns the current rate.\n  * If rate was updated more than MAX_PRICE_AGE block ago,\n  * emits GetNewRate event to trigger the oracle server.\n  */\n  function getRate () public returns (uint){\n    if ((block.number - lastUpdateBlock) > MAX_PRICE_AGE) {\n      emit GetNewRate(\"ETH/BBSE\");\n    }\n    return rate;\n  }\n}",
  "sourcePath": "/Users/burakoz/Burak/tum/phd/sebis/BBSE/SoSe 22/Exercises/Ethereum Bonus/bbse-bank-fe/contracts/ETHBBSEPriceFeedOracle.sol",
  "compiler": {
    "name": "solc",
    "version": "0.8.11+commit.d7f03943.Emscripten.clang"
  },
  "schemaVersion": "3.4.4",
  "updatedAt": "2022-07-01T11:48:57.600Z",
  "networkType": "ethereum",
  "devdoc": {
    "kind": "dev",
    "methods": {
      "constructor": {
        "details": "Initializes lastUpdateBlock to current block number and rate to 0. Emits GetNewRate to trigger the oracle server to update the rate. The priceFeed parameter of GetNewRate should be ETH/BBSE"
      },
      "getRate()": {
        "details": "Returns the current rate. If rate was updated more than MAX_PRICE_AGE block ago, emits GetNewRate event to trigger the oracle server."
      },
      "owner()": {
        "details": "Returns the address of the current owner."
      },
      "renounceOwnership()": {
        "details": "Leaves the contract without owner. It will not be possible to call `onlyOwner` functions anymore. Can only be called by the current owner. NOTE: Renouncing ownership will leave the contract without an owner, thereby removing any functionality that is only available to the owner."
      },
      "transferOwnership(address)": {
        "details": "Transfers ownership of the contract to a new account (`newOwner`). Can only be called by the current owner."
      },
      "updateRate(uint256)": {
        "details": "Updates the rate and sets the lastUpdateBlock to current block number. Can only be called by the owner of the oracle contract. Can't be called internally.",
        "params": {
          "_rate": "new rate of the price feed."
        }
      }
    },
    "version": 1
  },
  "userdoc": {
    "kind": "user",
    "methods": {},
    "version": 1
  }
}